:020000040000FA
:100000000C9462000C948A000C948A000C948A0070
:100010000C948A000C948A000C948A000C948A0038
:100020000C948A000C948A000C948A000C94890623
:100030000C948A000C948A000C948A000C948A0018
:100040000C943F060C948A000C940D060C94E70562
:100050000C948A000C948A000C948A000C948A00F8
:100060000C948A000C948A000000000024002700F1
:100070002A0000000000250028002B0000000000DE
:1000800023002600290004040404040404040202DA
:100090000202020203030303030301020408102007
:1000A0004080010204081020010204081020000012
:1000B0000008000201000003040700000000000027
:1000C0000000450711241FBECFEFD8E0DEBFCDBF33
:1000D00011E0A0E0B1E0E0ECF6E102C005900D9285
:1000E000A039B107D9F722E0A0E9B1E001C01D9223
:1000F000AE3EB207E1F710E0C2E6D0E004C02197BF
:10010000FE010E94580BC136D107C9F70E941A0898
:100110000C945E0B0C940000E2EAF1E0A089B18936
:1001200082E08C93A485B5851C92A685B7858FEC5B
:100130008C93108EA489B58986E08C93A289B389AB
:100140008C9180618C93A289B3898C9188608C9307
:10015000A289B3898C9180688C930288F389E02D01
:1001600080818F7D808308958F929F92AF92BF92FE
:10017000FF920F931F93CF93DF93F090D3022BE066
:100180002F1508F44CC02091D50208E512E0021B9F
:10019000110927FD1395000F111F000F111F20914A
:1001A000D402C8E8D0E0C21BD10927FDD395CC0FFB
:1001B000DD1FCC0FDD1F4E010D2E000CAA08BB0861
:1001C0009801012E000C440B550B281939094A09D6
:1001D0005B09DC010E94130B24EB30E040E050E0AF
:1001E0000E94E90A820E931EA41EB51E8C169D065F
:1001F0002CF0E801801691060CF4E4012297CC0F54
:10020000DD1F2FB7F8948F2D90E0FC01EE0FFF1F3C
:10021000E80FF91FE15CFD4FD283C1832FBFDF914F
:10022000CF911F910F91FF90BF90AF909F908F90B3
:10023000089596E0899FD0011124AC59BD4F909646
:100240007C936E935F9791E091969C939197E09148
:10025000D102F091D2029091D002992339F03097D7
:1002600051F0811108C0809180020994309719F0F3
:100270005C968C91FACF0895CF92DF92EF92FF9225
:100280000F931F9396E0899FF0011124EC59FD4FC5
:1002900011A2278D30A12130310551F178F02230A3
:1002A000310509F451C02330310509F452C01F91C2
:1002B0000F91FF90EF90DF90CF9008956623B9F3F0
:1002C00061E070E00E9419012FB7F89480919E01BF
:1002D00090919F01A091A001B091A1012FBF8093A7
:1002E000BC029093BD02A093BE02B093BF02DFCFC9
:1002F0009FB7F894C0909E01D0909F01E090A0011C
:10030000F090A1019FBF0091BC021091BD0220910D
:10031000BE023091BF02C01AD10AE20AF30A00916C
:10032000CE021091CF0230E020E00C151D052E0505
:100330003F0550F462E070E01F910F91FF90EF9045
:10034000DF90CF900C9419016111B1CF63E070E0A0
:10035000F3CF70E060E0F0CFAF92BF92CF92DF9228
:10036000EF92FF920F931F93CF93DF936C017B016A
:100370008B01040F151FEB015E01AE18BF08C017FB
:10038000D10759F06991D601ED91FC910190F0816E
:10039000E02DC6010995892B79F7C501DF91CF9131
:1003A0001F910F91FF90EF90DF90CF90BF90AF9093
:1003B0000895FC01538D448D252F30E0842F90E06B
:1003C000821B930B541710F0CF9608950197089550
:1003D000FC01918D828D981761F0A28DAE0FBF2F19
:1003E000B11D5D968C91928D9F5F9F73928F90E06F
:1003F00008958FEF9FEF0895FC01918D828D9817DE
:1004000031F0828DE80FF11D858D90E008958FEF1A
:100410009FEF0895FC01918D228D892F90E0805CE3
:100420009F4F821B91098F739927089582EA91E06B
:100430000E940A0221E0892B09F420E0822F08950E
:1004400080E090E0892B29F00E94160281110C9423
:1004500000000895FC01A48DA80FB92FB11DA35A67
:10046000BF4F2C91848D90E001968F739927848FD4
:10047000A689B7892C93A089B1898C9183708064F7
:100480008C93938D848D981306C00288F389E02D98
:1004900080818F7D80830895EF92FF920F931F9349
:1004A000CF93DF93EC0181E0888F9B8D8C8D981327
:1004B0001AC0E889F989808185FF15C09FB7F89433
:1004C000EE89FF896083E889F9898081837080647F
:1004D00080839FBF81E090E0DF91CF911F910F91CA
:1004E000FF90EF900895F62E0B8D10E00F5F1F4FD9
:1004F0000F731127E02E8C8D8E110CC00FB607FCE8
:10050000FACFE889F989808185FFF5CFCE010E9475
:100510002A02F1CFEB8DEC0FFD2FF11DE35AFF4FB7
:10052000F0829FB7F8940B8FEA89FB898081806203
:10053000CFCFCF93DF93EC01888D8823B9F0AA89C0
:10054000BB89E889F9898C9185FD03C0808186FD8E
:100550000DC00FB607FCF7CF8C9185FFF2CF8081DD
:1005600085FFEDCFCE010E942A02E9CFDF91CF9126
:100570000895833081F028F4813099F08230A9F019
:1005800008958730A9F08830C9F08430B1F48091A3
:1005900080008F7D03C0809180008F7780938000E2
:1005A000089584B58F7784BD089584B58F7DFBCF82
:1005B0008091B0008F778093B00008958091B00053
:1005C0008F7DF9CFCF93DF93282F30E0F901E255EB
:1005D000FF4F8491F901E656FF4FD491F901EA5794
:1005E000FF4FC491CC23A1F081110E94B902EC2FDE
:1005F000F0E0EE0FFF1FE458FF4FA591B491EC918E
:10060000ED2381E090E009F480E0DF91CF9108953F
:1006100080E090E0FACF862F0C94E2021F93CF93F4
:10062000DF93282F30E0F901E255FF4F8491F90163
:10063000E656FF4FD491F901EA57FF4FC491CC23FE
:10064000A9F0162F81110E94B902EC2FF0E0EE0FF5
:10065000FF1FEE58FF4FA591B4918FB7F894EC911E
:10066000111108C0D095DE23DC938FBFDF91CF91AD
:100670001F910895DE2BF8CF862F642F0C940E0364
:10068000CF93DF9390E0FC01E656FF4F24918A5709
:100690009F4FFC0184918823C9F090E0880F991F37
:1006A000FC01E859FF4FA591B491FC01EE58FF4FB2
:1006B000C591D49161110DC09FB7F8948C9120958C
:1006C00082238C938881282328839FBFDF91CF9139
:1006D0000895623051F49FB7F8943C91822F809531
:1006E00083238C93E8812E2BEFCF8FB7F894EC9176
:1006F0002E2B2C938FBFEACF862F642F0C944003B0
:100700003FB7F8948091920190919301A091940148
:10071000B091950126B5A89B05C02F3F19F0019611
:10072000A11DB11D3FBFBA2FA92F982F8827BC014B
:10073000CD01620F711D811D911D42E0660F771F73
:10074000881F991F4A95D1F708958F929F92AF9273
:10075000BF92CF92DF92EF92FF924B015C010E9419
:1007600080036B017C010E9480036C197D098E0956
:100770009F09683E734081059105A8F321E0821A24
:100780009108A108B10888EEC80E83E0D81EE11CCC
:10079000F11C81149104A104B10429F7FF90EF909A
:1007A000DF90CF90BF90AF909F908F900895089565
:1007B00090E080E00895CF93DF93EC0160E08E81BC
:1007C0000E940E0361E08E810E940E0360E08E8124
:1007D0000E940E038BE891E00197F1F7DF91CF9132
:1007E0000895CF92DF92EF92FF920F931F93CF93D2
:1007F000DF936C017C0187E0E80EF11CD0E0C0E0E3
:10080000062F10E0B8010C2E02C0759567950A946A
:10081000E2F76170F70181917F010E940E0321963A
:10082000C430D10579F7C601DF91CF911F910F91A7
:10083000FF90EF90DF90CF900C94DB03CF92DF928C
:10084000EF92FF920F931F93CF93DF93EC01F62E5D
:10085000642F8C810E940E038D818F3F19F060E020
:100860000E940E030F2D10E08F8584FF25C06E01BE
:1008700087E0C80ED11CF12CE12CB8010E2C02C06F
:10088000759567950A94E2F76170F60181916F01A1
:100890000E940E03FFEFEF1AFF0A88E0E816F1044A
:1008A00061F7CE01DF91CF911F910F91FF90EF90F3
:1008B000DF90CF900C94DB03B80184E075956795C9
:1008C0008A95E1F7CE010E94F1036F2DCE01DF91F1
:1008D000CF911F910F91FF90EF90DF90CF900C94EC
:1008E000F10340E0682F86ED92E00C941E0481E055
:1008F0000E9471048BE39FE10197F1F70895CF9374
:10090000DF93823029F49091E50298609093E5029C
:100910008093E9021092EA0280E48093EB0280E186
:100920008093EC0280E58093ED0261E08091DA0231
:100930000E9440038091DB028F3F19F061E00E942A
:10094000400361E08091DC020E944003C6EDD2E0EA
:100950009E01265D32408091E50284FD0BC084E05B
:1009600090E021962817390744F461E08E810E94B7
:100970004003EECF88E090E0F4CF8BE39DE0019759
:10098000F1F760E08091DA020E940E0360E080914E
:10099000DC020E940E038091DB028F3F19F060E0C1
:1009A0000E940E038091E50284FD34C063E086ED71
:1009B00092E00E94F103CBE4D6E4CE010197F1F777
:1009C00063E086ED92E00E94F1032197F1F763E086
:1009D00086ED92E00E94F10383E592E00197F1F742
:1009E00062E086ED92E00E94F1038091E502806270
:1009F0000E94710484E08093E6028CE00E947104FE
:100A00000E94770482E08093E70286E0DF91CF9135
:100A10000C94710480620E9471048BE496E4019747
:100A2000F1F78091E50280620E94710483E592E013
:100A30000197F1F78091E50280620E947104D5CFA1
:100A40009091E902691710F06FEF690FE62FF0E05F
:100A5000EA52FD4F9489890F80680C94710441E03B
:100A60000E941E0481E090E00895FB0101900020A7
:100A7000E9F73197AF01461B570BDC01ED91FC9173
:100A80000280F381E02D09944F925F926F927F92E2
:100A9000AF92BF92CF92DF92EF92FF920F931F938C
:100AA000CF93DF93CDB7DEB7A1970FB6F894DEBF33
:100AB0000FBECDBF5C016A017B01F7FE47C0DC01C0
:100AC000ED91FC910190F081E02D6DE209958C0192
:100AD00022273327A9012C193D094E095F0919A2C4
:100AE000FE01B1967F019AE0492E512C612C712CA8
:100AF000CA01B901A30192010E941B0B605DD701DD
:100B00006E937D01211531054105510589F790E06E
:100B100080E0109721F0BD01C5010E943505800FCE
:100B2000911FA1960FB6F894DEBF0FBECDBFDF9127
:100B3000CF911F910F91FF90EF90DF90CF90BF90DA
:100B4000AF907F906F905F904F900895AB019601AA
:100B500019A28E010F5D1F4F8AE0C82ED12CE12C07
:100B6000F12CCA01B901A70196010E941B0B605D1F
:100B7000F80162938F01211531054105510589F76F
:100B800090E080E0309769F2BF01C5010E94350511
:100B9000C8CF0E94770460E080E00E94200560E4F6
:100BA00071E086ED92E00E94350564EF71E080E02F
:100BB00090E00E94A5030E94770461E571E086ED54
:100BC00092E00E94350561E080E00C9420051F92C0
:100BD0000F920FB60F9211242F933F934F935F9371
:100BE0006F937F938F939F93AF93BF93EF93FF93F5
:100BF00082EA91E00E942A02FF91EF91BF91AF91AA
:100C00009F918F917F916F915F914F913F912F9124
:100C10000F900FBE0F901F9018951F920F920FB656
:100C20000F9211242F938F939F93EF93FF93E09153
:100C3000B201F091B3018081E091B801F091B90166
:100C400082FD1BC090818091BB018F5F8F732091CB
:100C5000BC01821741F0E091BB01F0E0EE55FE4F80
:100C6000958F8093BB01FF91EF919F918F912F9171
:100C70000F900FBE0F901F9018958081F4CF1F9298
:100C80000F920FB60F9211242F933F938F939F9340
:100C9000AF93BF9380919E0190919F01A091A0017D
:100CA000B091A1013091910123E0230F2D3758F528
:100CB0000196A11DB11D2093910180939E019093F7
:100CC0009F01A093A001B093A10180919201909106
:100CD0009301A0919401B09195010196A11DB11DC0
:100CE0008093920190939301A0939401B093950106
:100CF000BF91AF919F918F913F912F910F900FBE18
:100D00000F901F90189526E8230F0296A11DB11D84
:100D1000D2CF1F920F920FB60F9211242F933F93B1
:100D20004F935F936F937F938F939F93AF93BF93F3
:100D3000CF93DF93EF93FF9380919001C091630273
:100D4000D0E087FF24C0109285001092840080912B
:100D500090018F5F8093900180919001082E000C8C
:100D6000990B8C179D0724F4809190018C30C4F16D
:100D70008091840090918500049680349C4908F409
:100D80007AC08091840090918500049676C080910D
:100D90009001082E000C990B8C179D07C4F6E0916A
:100DA00090018E2FEE0F990BFC01EE0FFF1FE80F45
:100DB000F91FE15CFD4F808186FFC9CFE091900172
:100DC0008E2FEE0F990BFC01EE0FFF1FE80FF91F9E
:100DD000E15CFD4F808160E08F730E940E03B7CF0E
:100DE0002091840030918500E09190018E2FEE0FCC
:100DF000990BFC01EE0FFF1FE80FF91FE15CFD4F9F
:100E000081819281820F931F909389008093880043
:100E1000E09190018E2FEE0F990BFC01EE0FFF1F5A
:100E2000E80FF91FE15CFD4F808186FF11C0E09162
:100E300090018E2FEE0F990BFC01EE0FFF1FE80FB4
:100E4000F91FE15CFD4F808161E08F730E940E030A
:100E5000FF91EF91DF91CF91BF91AF919F918F91D2
:100E60007F916F915F914F913F912F910F900FBEA6
:100E70000F901F90189580E49CE9909389008093CF
:100E800088008FEF80939001E3CFCF931092A5015C
:100E90001092A40188EE93E0A0E0B0E08093A60158
:100EA0009093A701A093A801B093A9018CE191E0D0
:100EB0009093A3018093A20185EC90E09093AF0101
:100EC0008093AE0184EC90E09093B1018093B001E7
:100ED00080EC90E09093B3018093B20181EC90E0BC
:100EE0009093B5018093B40182EC90E09093B701A8
:100EF0008093B60186EC90E09093B9018093B8019D
:100F00001092BB011092BC011092BD011092BE0163
:100F10001092D9021092D80288E391E09093D70200
:100F20008093D6028EE08093DA02CFEFC093DB028B
:100F30008FE08093DC0280E18093DD0281E1809389
:100F4000DE0282E18093DF0283E18093E00210926F
:100F5000E1021092E2021092E3021092E402109277
:100F6000E50281E00E947F04809163028C3008F0EA
:100F70005EC091E0980F909363028093D30290E05B
:100F8000FC01EE0FFF1FE80FF91FE15CFD4F88EB3E
:100F90009BE0928381831092660210926A02109203
:100FA000690210926B028EE291E090936502809349
:100FB0006402E0E8F2E01082148213821582369611
:100FC00082E0EC3BF807B9F784E091E09093C70228
:100FD0008093C60280E091E09093C9028093C8029A
:100FE00084E08093CA028093CB0288E091E09093E2
:100FF000C5028093C4028AE090E09093CD02809372
:10100000CC0284EF91E09093CF028093CE021092B5
:10101000D2021092D1021092C0021092C10210921C
:10102000C2021092C3021092D002CF910895C093D1
:10103000D302B1CF789484B5826084BD84B58160D9
:1010400084BD85B5826085BD85B5816085BD809193
:101050006E00816080936E0010928100809181000B
:101060008260809381008091810081608093810003
:10107000809180008160809380008091B1008460C5
:101080008093B1008091B00081608093B000809126
:101090007A00846080937A0080917A0082608093E5
:1010A0007A0080917A00816080937A0080917A0042
:1010B000806880937A001092C1008091D3028C30B6
:1010C00008F051C061E08AE00E9440038091D302A1
:1010D000282F30E0F901EE0FFF1FE20FF31FE15C54
:1010E000FD4F9081907C9A6090831092D402109270
:1010F000D5022CE0622F0E944C0B829FB00111247C
:1011000030E020E0AB01420F531FFA01EE0FFF1F4A
:10111000E40FF51FE15CFD4F908196FD16C02F5F37
:101120003F4F2C30310571F781110FC010928000B4
:1011300082E0809381001092850010928400B19A21
:1011400080916F00826080936F00E091D3028E2FB8
:1011500090E0FC01EE0FFF1FE80FF91FE15CFD4F6F
:1011600080818064808382E00E947F0461E571E079
:1011700086ED92E00E94350561E080E00E94200546
:101180000E948C0082E390E00E94B40061E08DE058
:101190000E94400360E08CE00E9440030E948C00AB
:1011A000412C512C3201439488248A94982C50E08D
:1011B000C52E50E0D52E51E05093D0028FB7F89451
:1011C00040919E0150919F016091A0017091A101F9
:1011D0008FBF8091C0029091C102A091C202B091D4
:1011E000C302481B590B6A0B7B0B8091CC02909178
:1011F000CD02B0E0A0E084179507A607B70708F076
:1012000015C1C0E08091CA02C81760F4E091C6021F
:10121000F091C702EC0FF11D62E080810E94400353
:10122000CF5FF0CF312C8091CB02381608F05FC031
:10123000032D10E0E091C802F091C902E00FF11F08
:1012400061E080810E944003E091C802F091C902F0
:10125000E00FF11F60E080810E940E03D301C20104
:10126000032C04C0880F991FAA1FBB1F0A94D2F732
:101270005C017C01E094F094212C8091CA02281634
:10128000F8F4C22DD0E0E091C602F091C702EC0F55
:10129000FD1F80810E94E2022496CC0FDD1FCC59F5
:1012A000DD4F892B41F4888199818A299B29998373
:1012B00088832394E2CF888199818E219F21F7CF63
:1012C000E091C802F091C902E00FF11F61E0808156
:1012D0000E940E038091C8029091C902080F191F45
:1012E00060E0F80180810E94400333949CCFC4E603
:1012F000D2E0FE01878D90A1892B21F4148E968E69
:10130000858E11A2369652E0E03AF50799F7F12C56
:101310008091CA02F81608F051C0E12C0F2D10E0A0
:10132000000F111F04591D4F2091CB02E21608F047
:1013300043C0F801608171810E2C02C076956795DB
:101340000A94E2F7F29E900111242E0D311DE4E67D
:10135000F2E080E0458D568D2417350709F437C13A
:101360008F5F36968A30B1F760FF24C0E4E6F2E082
:1013700090E080E0448D411118C0E091C402F091EA
:10138000C502E20FF31F408156E0589FF001599FBC
:10139000F00D1124EC59FD4F448F368F258F10A28C
:1013A000178E61E00E943C0105C0019636968A3096
:1013B000910501F7E394B8CFF394AACF80E099A107
:1013C0009111892F269692E0C03AD907C1F79FB7AD
:1013D000F89440919E0150919F016091A0017091FD
:1013E000A1019FBF4093C0025093C1026093C2020B
:1013F0007093C3028823D1F0809185028823B1F0D5
:101400008091830290918402019781F4C0918002BF
:10141000C1110FC0C114D10409F4CDCE0E9416022F
:10142000882309F4C8CE0E940000C5CE1092D002D5
:10143000F1CF41E06C2F86ED92E00E941E04809176
:101440009C0190919D01C43461F09C012F5F3F4F3E
:1014500030939D0120939C0188569E4FFC01C083D0
:10146000D9CF039709F0A8C0809196019091970178
:1014700020919801263309F4019620919901263391
:1014800009F4019620919A01263309F4019690936C
:10149000970180939601039709F08EC00E9477040C
:1014A00060E671E086ED92E00E94350564EF71E040
:1014B00080E090E00E94A5030E94770460E080E055
:1014C0000E9420056FE671E086ED92E00E943505EE
:1014D00086E990E00E94B40061E080E00E9420056F
:1014E0006FE771E086ED92E00E94350589E0C82E35
:1014F000D12CE12CF12C61E08DE00E942005B70198
:10150000A60186ED92E00E94440568EE73E080E05B
:1015100090E00E94A503F1E0CF1AD108E108F1089C
:101520005FEFC516D506E506F50629F782E390E0DC
:101530000E94B4000E94770461E571E086ED92E0BC
:101540000E94350561E080E00E9420058CE00E9449
:10155000E202EC016C01990FEE08FF08B701A60149
:1015600082EA91E00E9444056CE871E082EA91E031
:101570000E943505B701A60182EA91E00E94440568
:1015800068E270E080E090E00E94A503CD2BF1F6C8
:101590008DE00E94E202892BC9F661E08DE00E9495
:1015A0000E0368E873E180E090E00E94A50360E02C
:1015B0008DE00E940E03CACF0E94C90510929D01C2
:1015C00010929C01109297011092960123CF6170A6
:1015D000E9CE052E97FB1EF400940E94000B57FDE8
:1015E00007D00E941B0B07FC03D04EF40C94000B99
:1015F00050954095309521953F4F4F4F5F4F08953F
:1016000090958095709561957F4F8F4F9F4F08956E
:101610000E943D0BA59F900DB49F900DA49F800D3F
:10162000911D11240895B7FF0C94080B0E94080B1C
:10163000821B930B0895A1E21A2EAA1BBB1BFD016E
:101640000DC0AA1FBB1FEE1FFF1FA217B307E407A1
:10165000F50720F0A21BB30BE40BF50B661F771FF9
:10166000881F991F1A9469F76095709580959095D9
:101670009B01AC01BD01CF010895A29FB001B39FB2
:10168000C001A39F700D811D1124911DB29F700D8B
:10169000811D1124911D0895991B79E004C0991FA3
:1016A000961708F0961B881F7A95C9F780950895BC
:1016B000EE0FFF1F0590F491E02D0994F894FFCFF1
:1016C0000504030209080706313233413435364236
:1016D000373839432A302344000000004C02AC0163
:1016E000D90199020A02E801FC01000000007C0314
:1016F0003C030B03000000002F05AC01D803D70307
:10170000496E76616C69642050617373776F72649F
:1017100000456E7465722050617373776F72640058
:1017200056616C69642050617373776F7264004511
:101730006E7465722046726F6D2047617465004358
:101740006C6F736520416674657220000D0A00009D
:107E0000112484B714BE81FFF0D085E080938100F7
:107E100082E08093C00088E18093C10086E0809377
:107E2000C20080E18093C4008EE0C9D0259A86E02C
:107E300020E33CEF91E0309385002093840096BBD3
:107E4000B09BFECF1D9AA8958150A9F7CC24DD24C4
:107E500088248394B5E0AB2EA1E19A2EF3E0BF2EE7
:107E6000A2D0813461F49FD0082FAFD0023811F036
:107E7000013811F484E001C083E08DD089C08234E0
:107E800011F484E103C0853419F485E0A6D080C0E4
:107E9000853579F488D0E82EFF2485D0082F10E0AE
:107EA000102F00270E291F29000F111F8ED06801E7
:107EB0006FC0863521F484E090D080E0DECF843638
:107EC00009F040C070D06FD0082F6DD080E0C81688
:107ED00080E7D80618F4F601B7BEE895C0E0D1E017
:107EE00062D089930C17E1F7F0E0CF16F0E7DF06D8
:107EF00018F0F601B7BEE89568D007B600FCFDCFD4
:107F0000A601A0E0B1E02C9130E011968C91119780
:107F100090E0982F8827822B932B1296FA010C0160
:107F200087BEE89511244E5F5F4FF1E0A038BF0790
:107F300051F7F601A7BEE89507B600FCFDCF97BE46
:107F4000E89526C08437B1F42ED02DD0F82E2BD052
:107F50003CD0F601EF2C8F010F5F1F4F84911BD097
:107F6000EA94F801C1F70894C11CD11CFA94CF0C13
:107F7000D11C0EC0853739F428D08EE10CD085E9AC
:107F80000AD08FE07ACF813511F488E018D01DD067
:107F900080E101D065CF982F8091C00085FFFCCF94
:107FA0009093C60008958091C00087FFFCCF809118
:107FB000C00084FD01C0A8958091C6000895E0E648
:107FC000F0E098E1908380830895EDDF803219F02E
:107FD00088E0F5DFFFCF84E1DECF1F93182FE3DFCA
:107FE0001150E9F7F2DF1F91089580E0E8DFEE27F6
:047FF000FF270994CA
:027FFE00040479
:00000001FF
