:020000040000FA
:100000000C948F000C94B7000C94B7000C94B700BC
:100010000C94B7000C94B7000C94B7000C94B70084
:100020000C94B7000C94B7000C94B7000C94B70074
:100030000C94B7000C94B7000C94B7000C94B70064
:100040000C94AF050C94B7000C947D050C945705E7
:100050000C94B7000C94B7000C94B7000C94B70044
:100060000C94B7000C94B70008000000BE9224491D
:10007000123EABAAAA2ABECDCCCC4C3E00000080DA
:10008000BEABAAAAAA3E00000000BF000000803F4D
:100090000000000000084178D3BB4387D1133D190D
:1000A0000E3CC3BD4282AD2B3E68EC8276BED98F3A
:1000B000E1A93E4C80EFFFBE01C4FF7F3F0000007E
:1000C000000000000000240027002A0000000000BB
:1000D000250028002B00000000080002010000039A
:1000E00004070000000000000000000000002300E2
:1000F0002600290004040404040404040202020289
:1001000002020303030303030102040810204080DA
:100110000102040810200102040810203E061124E8
:100120001FBECFEFD8E0DEBFCDBF11E0A0E0B1E051
:10013000E8EDF8E102C005900D92AE36B107D9F7AF
:1001400022E0AEE6B1E001C01D92AB32B207E1F7AA
:1001500010E0CFE8D0E004C02197FE010E94640CBB
:10016000CE38D107C9F70E948B060C946A0C0C9408
:100170000000CF92DF92EF92FF92CF93DF93B09186
:100180001F02A0E08111AB2F8091200290E0880F28
:10019000991FAC0146515F4FC0902502D0902602B6
:1001A000E0902702F090280230E020E0FA01C591AB
:1001B000D491E881B90190E080E0EB23EA130AC012
:1001C0002F5F3F4F6C157D058E059F0578F36FEF10
:1001D0007FEFCB01DF91CF91FF90EF90DF90CF9039
:1001E0000895AF92BF92CF92DF92EF92FF920F935A
:1001F0001F93CF93DF936C017B018B01040F151FBD
:10020000EB015E01AE18BF08C017D10759F0699124
:10021000D601ED91FC910190F081E02DC601099588
:10022000892B79F7C501DF91CF911F910F91FF9035
:10023000EF90DF90CF90BF90AF900895FC01538D69
:10024000448D252F30E0842F90E0821B930B5417B0
:1002500010F0CF96089501970895FC01918D828D3D
:10026000981761F0A28DAE0FBF2FB11D5D968C91D6
:10027000928D9F5F9F73928F90E008958FEF9FEF15
:100280000895FC01918D828D981731F0828DE80FD1
:10029000F11D858D90E008958FEF9FEF0895FC018B
:1002A000918D228D892F90E0805C9F4F821B910958
:1002B0008F73992708958BE791E00E944F0121E009
:1002C000892B09F420E0822F089580E090E0892BAB
:1002D00029F00E945B0181110C9400000895FC013B
:1002E000A48DA80FB92FB11DA35ABF4F2C91848D97
:1002F00090E001968F739927848FA689B7892C93F4
:10030000A089B1898C91837080648C93938D848D46
:10031000981306C00288F389E02D80818F7D808349
:100320000895EF92FF920F931F93CF93DF93EC0109
:1003300081E0888F9B8D8C8D98131AC0E889F9898C
:10034000808185FF15C09FB7F894EE89FF8960838F
:10035000E889F98980818370806480839FBF81E010
:1003600090E0DF91CF911F910F91FF90EF90089552
:10037000F62E0B8D10E00F5F1F4F0F731127E02E2D
:100380008C8D8E110CC00FB607FCFACFE889F98965
:10039000808185FFF5CFCE010E946F01F1CFEB8DFB
:1003A000EC0FFD2FF11DE35AFF4FF0829FB7F89439
:1003B0000B8FEA89FB8980818062CFCFCF93DF9357
:1003C000EC01888D8823B9F0AA89BB89E889F9896D
:1003D0008C9185FD03C0808186FD0DC00FB607FCA2
:1003E000F7CF8C9185FFF2CF808185FFEDCFCE01D5
:1003F0000E946F01E9CFDF91CF910895833081F0A2
:1004000028F4813099F08230A9F008958730A9F05E
:100410008830C9F08430B1F4809180008F7D03C0B2
:10042000809180008F7780938000089584B58F77C6
:1004300084BD089584B58F7DFBCF8091B0008F7708
:100440008093B00008958091B0008F7DF9CF1F9305
:10045000CF93DF93282F30E0F901EA52FF4F8491C8
:10046000F901E85FFE4FD491F901EC50FF4FC491C0
:10047000CC23A9F0162F81110E94FE01EC2FF0E091
:10048000EE0FFF1FE453FF4FA591B4918FB7F8947F
:10049000EC91111108C0D095DE23DC938FBFDF9162
:1004A000CF911F910895DE2BF8CFCF93DF9390E08B
:1004B000FC01E85FFE4F24918C509F4FFC0184911A
:1004C0008823C9F090E0880F991FFC01EE53FF4F7D
:1004D000A591B491FC01E453FF4FC591D4916111F2
:1004E0000DC09FB7F8948C91209582238C938881BE
:1004F000282328839FBFDF91CF910895623051F464
:100500009FB7F8943C91822F809583238C93E88148
:100510002E2BEFCF8FB7F894EC912E2B2C938FBF0F
:10052000EACF8E50806480937C0080917A00806452
:1005300080937A0080917A0086FDFCCF80917800CC
:100540009091790008953FB7F89480916F01909150
:100550007001A0917101B091720126B5A89B05C0F0
:100560002F3F19F00196A11DB11D3FBFBA2FA92F32
:10057000982F8827BC01CD01620F711D811D911D2F
:1005800042E0660F771F881F991F4A95D1F708959B
:100590008F929F92AF92BF92CF92DF92EF92FF9293
:1005A0004B015C010E94A3026B017C010E94A3022B
:1005B0006C197D098E099F09683E7340810591057C
:1005C000A8F321E0821A9108A108B10888EEC80EAC
:1005D00083E0D81EE11CF11C81149104A104B10434
:1005E00029F7FF90EF90DF90CF90BF90AF909F9052
:1005F0008F900895CF92DF92EF92FF920F931F9307
:10060000CF93DF93CDB7DEB7C054D1400FB6F89487
:10061000DEBF0FBECDBF2FB7F894809177019091C8
:100620007801A0917901B0917A012FBF4091210208
:100630005091220260912302709124028C019D014D
:10064000041B150B260B370BB901A801403D574081
:100650006105710590F480912902C05CDE4F0FB6F0
:10066000F894DEBF0FBECDBFDF91CF911F910F91E8
:10067000FF90EF90DF90CF900895809321029093A8
:100680002202A0932302B093240210921C02109223
:100690001B0210921A02109219021092180262E0C4
:1006A00080911D020E94550261E070E080E090E0C0
:1006B0000E94C80261E080911D020E94550260E024
:1006C00080911D020E94270280911E028551823076
:1006D00020F58BE291E10197F1F762E080911D0234
:1006E0000E94550280912A0290E08230910538F0F4
:1006F000880F991F880F991F05970197F1F7F894B4
:1007000080E00E94B9006F3F7F4F8F4F9F4F61F491
:1007100010922902789480E0A0CF64E170E080E03C
:1007200090E00E94C802D9CF81E00E94B9006F3FDB
:100730007F4F8F4F9F4F61F38E010F5F1F4F6E01F1
:100740008FEBC81A8EEFD80A780180E00E94B900BA
:10075000F701608371838283938381E00E94B900F3
:10076000F7016483758386839783F8E0EF0EF11CAD
:10077000EC14FD0451F7789430E020E0F801C080DB
:10078000D180E280F3804481558166817781FFEFDB
:10079000CF16DF06EF06FF0631F04F3F8FEF580709
:1007A0006807780719F410922902B5CFF90183E0A0
:1007B000F595E7958A95E1F7E85EFD4F8081880F12
:1007C000C416D506E606F70610F180832F5F3F4F6B
:1007D000085F1F4F2832310589F640911C02209195
:1007E000180280911902280F3327331F80911A02B3
:1007F000280F311D80911B02820F932F911D992785
:100800004817190681F681E08093290226CF81607E
:10081000DCCFFC0101900020E9F73197AF01481BC4
:10082000590BBC018BE791E00C94F1008F929F92E1
:10083000AF92BF920F931F93CF93DF93CDB7DEB7E5
:10084000A1970FB6F894DEBF0FBECDBF19A24230FC
:1008500008F44AE08E010F5D1F4F842E912CB12CBD
:10086000A12CA50194010E94420CE62FB901CA01F6
:10087000EA30F4F4E05DD801EE938D01232B242BB4
:10088000252B79F790E080E0109719F0CD010E94B8
:100890000904A1960FB6F894DEBF0FBECDBFDF915D
:1008A000CF911F910F91BF90AF909F908F9008951F
:1008B000E95CE1CFCF92DF92EF92FF92CF93DF938B
:1008C0006B017C016DE28BE791E00E949101EC01EC
:1008D00066277727CB016C197D098E099F094AE0AD
:1008E0000E9416048C0F9D1FDF91CF91FF90EF9017
:1008F000DF90CF9008954F925F926F927F928F9288
:100900009F92AF92BF92CF92DF92EF92FF920F939E
:100910001F93CF936B017C01742EAC019B010E944D
:10092000080C882399F082E191E0CF911F910F91FB
:10093000FF90EF90DF90CF90BF90AF909F908F90FF
:100940007F906F905F904F900C940904460157017F
:10095000E894B7F82FEF3FEF4FE75FE7C501B40129
:100960000E94080C81110DC02FEF3FEF4FE75FE7AA
:10097000C501B4010E94E70918161CF486E191E054
:10098000D4CF2FEF3FEF4FE75FE4C701B6010E94DE
:10099000460B18161CF48AE191E0C7CF2FEF3FEF0A
:1009A0004FE75FECC701B6010E94E70987FDF3CF6F
:1009B00020E030E0A901C701B6010E94E70910E07C
:1009C00000E087FF0AC06DE28BE791E00E94910191
:1009D0008C01F7FAF094F7F8F094C0E060E070E072
:1009E00080E09FE37C1641F020E030E040E251E4FB
:1009F0000E94EC09CF5FF6CFA70196010E947B0908
:100A00002B013C010E94650A4B015C014AE00E94F7
:100A100016047C01E00EF11ECC23C1F1C501B40126
:100A20000E94940A9B01AC01C301B2010E947A09A1
:100A30004B015C016EE28BE791E00E949101E80EB0
:100A4000F91EC15018F120E030E040E251E4C50148
:100A5000B4010E949B0B2B013C010E94650A4B01D3
:100A6000B12CA12C4AE0C501B4010E941604E80E85
:100A7000F91EC501B4010E94940A9B01AC01C30197
:100A8000B2010E947A094B015C01DBCFC701CF9113
:100A90001F910F91FF90EF90DF90CF90BF90AF909C
:100AA0009F908F907F906F905F904F9008951F92CE
:100AB0000F920FB60F9211242F933F934F935F9392
:100AC0006F937F938F939F93AF93BF93EF93FF9316
:100AD0008BE791E00E946F01FF91EF91BF91AF9181
:100AE0009F918F917F916F915F914F913F912F9146
:100AF0000F900FBE0F901F9018951F920F920FB678
:100B00000F9211242F938F939F93EF93FF93E09174
:100B10008B01F0918C018081E0919101F091920123
:100B200082FD1BC09081809194018F5F8F73209113
:100B30009501821741F0E0919401F0E0E558FE4FF5
:100B4000958F80939401FF91EF919F918F912F91B9
:100B50000F900FBE0F901F9018958081F4CF1F92B9
:100B60000F920FB60F9211242F933F938F939F9361
:100B7000AF93BF938091770190917801A091790113
:100B8000B0917A0130916E0123E0230F2D3758F593
:100B90000196A11DB11D20936E0180937701909362
:100BA0007801A0937901B0937A0180916F019091BF
:100BB0007001A0917101B09172010196A11DB11D4A
:100BC00080936F0190937001A0937101B0937201B3
:100BD000BF91AF919F918F913F912F910F900FBE39
:100BE0000F901F90189526E8230F0296A11DB11DA6
:100BF000D2CFCF92DF92EF92FF920F931F93E82F05
:100C0000F92F05C0015011092109310961F19081C5
:100C100096239417B9F305C0015011092109310930
:100C200011F1908196239413F7CFC12CD12CE12C94
:100C3000F12C0AC08FEFC81AD80AE80AF80A0C1576
:100C40001D052E053F0579F080818623841791F3D9
:100C50006C2D7D2D8E2D9F2D1F910F91FF90EF906C
:100C6000DF90CF90089560E070E080E090E01F9109
:100C70000F91FF90EF90DF90CF900895EBE7F1E0B8
:100C80001382128288EE93E0A0E0B0E08483958323
:100C9000A683B78384E091E09183808385EC90E024
:100CA0009587848784EC90E09787868780EC90E036
:100CB000918B808B81EC90E0938B828B82EC90E027
:100CC000958B848B86EC90E0978B868B118E128EA1
:100CD000138E148EA8E1B2E082E015968C931597DE
:100CE0008BE016968C931697EAE0F1E0E491179664
:100CF000EC931797E6EFF0E0E4911896EC931897D1
:100D000040E85EE360E070E01D964D935D936D9367
:100D10007C9350970895789484B5826084BD84B59F
:100D2000816084BD85B5826085BD85B5816085BDE6
:100D300080916E00816080936E001092810080919E
:100D40008100826080938100809181008160809326
:100D50008100809180008160809380008091B1004B
:100D600084608093B1008091B00081608093B00076
:100D700080917A00846080937A0080917A0082600A
:100D800080937A0080917A00816080937A008091CC
:100D90007A00806880937A001092C100E0918B0104
:100DA000F0918C0182E08083E0918701F0918801CD
:100DB0001082E0918901F0918A018FEC808310927A
:100DC0009301E0918F01F091900186E08083E091A2
:100DD0008D01F0918E01808180618083E0918D0191
:100DE000F0918E01808188608083E0918D01F09187
:100DF0008E01808180688083E0918D01F0918E0169
:100E000080818F7D808361E084E00E94550261E0F3
:100E10008BE00E94550260E08FE00E94550261E085
:100E200089E00E94550260E088E00E94550261E07E
:100E30008DE00E94550261E08CE00E94550261E065
:100E400087E00E94550262E080911D020E945502D7
:100E50002FB7F8948091770190917801A091790152
:100E6000B0917A012FBF805D9740A109B1098093AD
:100E7000210290932202A0932302B093240287E3DD
:100E800080932A0262EE262E60E0362EC4E1D1E085
:100E900070E0A72E71E0B72E50E0852E50E0952E21
:100EA0008FE00E9491027C0161E08EE1E816F1047E
:100EB0000CF060E08BE00E9427028EE191E00E943E
:100EC0000904B701FF0C880B990B97FF38C10E94EA
:100ED0005A0488E291E00E9409048EE00E94910287
:100EE000BC01990F880B990B0E94960A9B01AC01DB
:100EF00060E070EC8FE794E40E94EC0920E030E0C1
:100F000040E85FE30E947A099B01AC0160E070E475
:100F10008CE196E40E94EC0920E030E44CE156E4D8
:100F20000E94EC090E94530B20E030EE46E755E4A6
:100F30000E94EC092FE03FEC4BE55BE30E947B094C
:100F40009B01AC0160E070E080E89FE30E94EC0947
:100F500023E333E948E853E40E947A09609373017C
:100F60007093740180937501909376018FE591E001
:100F70000E94090460917301709174018091750160
:100F80009091760142E00E947B048BE291E00E9406
:100F9000090488E291E00E94090464E670E080E0C0
:100FA00090E00E94C802C0907301D0907401E0905C
:100FB0007501F090760120E030E040E252E4C70194
:100FC000B6010E94460B61E018160CF060E084E068
:100FD0000E94270220E030E048E452E4C701B60155
:100FE0000E94460B18160CF0AEC061E08DE00E9426
:100FF0002702F1018491FE011491F501F49070E053
:1010000060E0FF2099F081110E94FE01EF2DF0E0D9
:10101000EE0FFF1FE651FF4FA591B4918C9118235D
:1010200091E080E009F490E0692F782FF1E06F27DC
:101030008CE00E94270260E089E00E94270262E0C3
:1010400070E080E090E00E94C80261E089E00E94C8
:1010500027026AE070E080E090E00E94C80260E051
:1010600089E00E942702E0E1F1E06491ECEFF0E01A
:101070008491E82FF0E0EE0FFF1FE651FF4F8591BE
:10108000949100E412E42FE030E0462F0E94F9052D
:10109000611571058105910529F06F5F7F4F8F4FB5
:1010A0009F4F9F70072E000C880B990B0E94960A89
:1010B00024E037EE4CE05DE30E949B0B20E030E043
:1010C00040E05FE30E949B0B0E945E0A6B0161E0BF
:1010D000F4E1CF16D1040CF060E087E00E94270213
:1010E0008EE291E00E940904B601DD0C880B990B99
:1010F00097FF2FC00E945A048DE491E00E940904DA
:1011000088E291E00E94090464EF71E080E090E0E1
:101110000E94C8020E94FA02882351F080911E02A8
:101120008B3030F08D30C8F08551823008F446C0E5
:10113000412C512C20EC622E2FE7722E2CC04AE05D
:101140000E941604C6CE60E08DE00E94270260E097
:101150006FCF4AE00E941604CFCF6091190270E071
:1011600090E080E00E94960A2DEC3CEC4CEC5DE3B4
:101170000E949B0B6B017C016091180270E090E073
:1011800080E00E94960A9B01AC01C701B6010E9453
:101190007B092B013C010E94FA02882341F08091D7
:1011A0001E028C3009F481C0D8F48B3091F1C12C2F
:1011B000D12C80ECE82E8FE7F82E55C060911802F4
:1011C0007091190276276727762790E080E00E94C9
:1011D000940A2DEC3CEC4CEC5DE30E949B0BD9CFC8
:1011E0008551823020F710911A02612F70E0762F1E
:1011F000662766277F7780911B02682B90E080E04E
:101200000E94940A2DEC3CEC4CEC5DE30E949B0B9D
:1012100068C060911A0270E090E080E00E94940A39
:101220006B017C0110911B0217FF0AC0AC019B01EE
:1012300060E070E080E89FEB0E947A096B017C011E
:101240001F70612F70E090E080E00E94960A2DEC04
:101250003CEC4CEC5DE30E949B0BA70196010E94C5
:101260007B096B017C0181E591E00E94090442E069
:10127000C301B2010E947B048CE591E00E94090445
:1012800042E0C701B6010E947B0488E291E00E941F
:1012900009048114910409F403CE0E945B018823A0
:1012A00009F4FACD0E940000F7CD10911A02612FC7
:1012B00070E090E080E00E94940A6B017C016091F4
:1012C0001B026F7070E090E080E00E94960A2DECA7
:1012D0003CEC4CEC5DE30E949B0BA70196010E9445
:1012E0007B096B017C0117FFBECFF7FAF094F7F88A
:1012F000F094B9CF5058BB27AA270E9492090C94AA
:101300000C0B0E94FE0A38F00E94050B20F039F405
:101310009F3F19F426F40C94FB0A0EF4E095E7FBCA
:101320000C94F50AE92F0E941D0B58F3BA176207B7
:1013300073078407950720F079F4A6F50C943F0B0A
:101340000EF4E0950B2EBA2FA02D0B01B9019001E0
:101350000C01CA01A0011124FF27591B99F0593F24
:1013600050F4503E68F11A16F040A22F232F342F6C
:101370004427585FF3CF469537952795A795F040BA
:101380005395C9F77EF41F16BA0B620B730B840BCF
:10139000BAF09150A1F0FF0FBB1F661F771F881F87
:1013A000C2F70EC0BA0F621F731F841F48F48795DF
:1013B00077956795B795F7959E3F08F0B0CF9395D1
:1013C000880F08F09927EE0F9795879508950E944A
:1013D000D10A08F481E008950E94000A0C940C0BD5
:1013E0000E94050B58F00E94FE0A40F029F45F3F6E
:1013F00029F00C94F50A51110C94400B0C94FB0A43
:101400000E941D0B68F39923B1F3552391F3951BAB
:10141000550BBB27AA2762177307840738F09F5F15
:101420005F4F220F331F441FAA1FA9F335D00E2E82
:101430003AF0E0E832D091505040E695001CCAF7EF
:101440002BD0FE2F29D0660F771F881FBB1F2617B2
:1014500037074807AB07B0E809F0BB0B802DBF0189
:10146000FF2793585F4F3AF09E3F510578F00C9458
:10147000F50A0C94400B5F3FE4F3983ED4F3869555
:1014800077956795B795F7959F5FC9F7880F911D79
:101490009695879597F90895E1E0660F771F881F65
:1014A000BB1F621773078407BA0720F0621B730B18
:1014B000840BBA0BEE1F88F7E09508950E94650A29
:1014C0006894B1110C94400B08950E94250B88F08C
:1014D0009F5798F0B92F9927B751B0F0E1F0660FF8
:1014E000771F881F991F1AF0BA95C9F714C0B13039
:1014F00091F00E943F0BB1E008950C943F0B672FD1
:10150000782F8827B85F39F0B93FCCF38695779567
:101510006795B395D9F73EF4909580957095619550
:101520007F4F8F4F9F4F0895E89409C097FB3EF47B
:1015300090958095709561957F4F8F4F9F4F992320
:10154000A9F0F92F96E9BB279395F695879577959E
:101550006795B795F111F8CFFAF4BB0F11F460FF5E
:101560001BC06F5F7F4F8F4F9F4F16C0882311F0B6
:1015700096E911C0772321F09EE8872F762F05C0CA
:10158000662371F096E8862F70E060E02AF09A9565
:10159000660F771F881FDAF7880F9695879597F95A
:1015A0000895990F0008550FAA0BE0E8FEEF1616F4
:1015B0001706E807F907C0F012161306E407F50747
:1015C00098F0621B730B840B950B39F40A2661F0BB
:1015D000232B242B252B21F408950A2609F4A1405E
:1015E000A6958FEF811D811D089597F99F6780E86B
:1015F00070E060E008959FEF80EC089500240A9465
:101600001616170618060906089500240A941216DD
:101610001306140605060895092E0394000C11F410
:10162000882352F0BB0F40F4BF2B11F460FF04C0BD
:101630006F5F7F4F8F4F9F4F089557FD9058440F16
:10164000551F59F05F3F71F04795880F97FB991F21
:1016500061F09F3F79F087950895121613061406DE
:10166000551FF2CF4695F1DF08C01616170618066B
:10167000991FF1CF86957105610508940895E89446
:10168000BB2766277727CB0197F908950E94D10AD7
:1016900008F48FEF089516F00C940D0C0C94FB0ACF
:1016A00068940C94F50A0E94250BA8F39923C1F3C2
:1016B000AEF3DF93CF931F930F93FF92C92FDD27D4
:1016C00088232AF02197660F771F881FDAF720E01A
:1016D00030E040E85FEB9FE3883920F0803E38F04F
:1016E00021968F770E947B09E8E6F0E004C00E9413
:1016F0007B09E5E9F0E00E941B0C8B01BE01EC01C7
:10170000FB2E6F5771097595771F880B990B0E94F7
:10171000960A28E132E741E35FE30E94AE0BAF2D6A
:101720009801AE01FF900F911F91CF91DF910E9420
:1017300092090C940C0B0E94AE0B0C940C0B0E94A3
:10174000FE0A38F00E94050B20F0952311F00C944E
:10175000F50A0C94FB0A11240C94400B0E941D0BFB
:1017600070F3959FC1F3950F50E0551F629FF001F4
:10177000729FBB27F00DB11D639FAA27F00DB11D0D
:10178000AA1F649F6627B00DA11D661F829F222796
:10179000B00DA11D621F739FB00DA11D621F839F1D
:1017A000A00D611D221F749F3327A00D611D231FF3
:1017B000849F600D211D822F762F6A2F11249F5741
:1017C00050409AF0F1F088234AF0EE0FFF1FBB1F44
:1017D000661F771F881F91505040A9F79E3F510503
:1017E00080F00C94F50A0C94400B5F3FE4F3983EB4
:1017F000D4F3869577956795B795F795E7959F5FAD
:10180000C1F7FE2B880F911D9695879597F908953E
:101810000E94D10A880B990B08959F3F31F0915097
:1018200020F4879577956795B795880F911D9695C4
:10183000879597F90895DF93CF931F930F93FF92A6
:10184000EF92DF927B018C01689406C0DA2EEF01E3
:101850000E94AE0BFE01E894A5912591359145912A
:101860005591A6F3EF010E949209FE019701A8018C
:10187000DA9469F7DF90EF90FF900F911F91CF916D
:10188000DF910895A1E21A2EAA1BBB1BFD010DC01A
:10189000AA1FBB1FEE1FFF1FA217B307E407F50720
:1018A00020F0A21BB30BE40BF50B661F771F881FFC
:1018B000991F1A9469F760957095809590959B0192
:1018C000AC01BD01CF010895EE0FFF1F0590F4910B
:1018D000E02D0994F894FFCF000000009101F10081
:1018E0001E01DE014F012D0141016E616E00696E26
:1018F00066006F7666006C64722076616C756500B8
:101900000D0A0020430044697374616E63652066AC
:10191000726F6D207468652074656C657669736993
:101920006F6E3A200020636D0048756D69646974BC
:10193000793A200025202054656D706572617475B8
:0619400072653A20000070
:107E0000112484B714BE81FFF0D085E080938100F7
:107E100082E08093C00088E18093C10086E0809377
:107E2000C20080E18093C4008EE0C9D0259A86E02C
:107E300020E33CEF91E0309385002093840096BBD3
:107E4000B09BFECF1D9AA8958150A9F7CC24DD24C4
:107E500088248394B5E0AB2EA1E19A2EF3E0BF2EE7
:107E6000A2D0813461F49FD0082FAFD0023811F036
:107E7000013811F484E001C083E08DD089C08234E0
:107E800011F484E103C0853419F485E0A6D080C0E4
:107E9000853579F488D0E82EFF2485D0082F10E0AE
:107EA000102F00270E291F29000F111F8ED06801E7
:107EB0006FC0863521F484E090D080E0DECF843638
:107EC00009F040C070D06FD0082F6DD080E0C81688
:107ED00080E7D80618F4F601B7BEE895C0E0D1E017
:107EE00062D089930C17E1F7F0E0CF16F0E7DF06D8
:107EF00018F0F601B7BEE89568D007B600FCFDCFD4
:107F0000A601A0E0B1E02C9130E011968C91119780
:107F100090E0982F8827822B932B1296FA010C0160
:107F200087BEE89511244E5F5F4FF1E0A038BF0790
:107F300051F7F601A7BEE89507B600FCFDCF97BE46
:107F4000E89526C08437B1F42ED02DD0F82E2BD052
:107F50003CD0F601EF2C8F010F5F1F4F84911BD097
:107F6000EA94F801C1F70894C11CD11CFA94CF0C13
:107F7000D11C0EC0853739F428D08EE10CD085E9AC
:107F80000AD08FE07ACF813511F488E018D01DD067
:107F900080E101D065CF982F8091C00085FFFCCF94
:107FA0009093C60008958091C00087FFFCCF809118
:107FB000C00084FD01C0A8958091C6000895E0E648
:107FC000F0E098E1908380830895EDDF803219F02E
:107FD00088E0F5DFFFCF84E1DECF1F93182FE3DFCA
:107FE0001150E9F7F2DF1F91089580E0E8DFEE27F6
:047FF000FF270994CA
:027FFE00040479
:00000001FF
